:020000040800F2
:10000000080A00203D030008A9060008AB06000806
:10001000AF060008B3060008B7060008000000009D
:10002000000000000000000000000000BB06000807
:10003000BD06000800000000BF060008A106000879
:100040005703000857030008570300083506000847
:100050005703000857030008550600085703000817
:100060005703000857030008570300085703000808
:1000700057030008570300085703000857030008F8
:1000800057030008570300085703000857030008E8
:1000900057030008570300085703000857030008D8
:1000A00057030008570300085703000857030008C8
:1000B00057030008570300085703000857030008B8
:1000C00057030008570300085703000857030008A8
:1000D0005703000857030008C1060008570300082B
:1000E0006B06000883060008570300085703000842
:1000F00057030008570300080708000857030008C3
:100100005703000857030008570300085703000867
:100110005703000857030008570300085703000857
:1001200057030008DFF80CD005F048FC00480047F2
:10013000D7030008080A002008B500200090744882
:10014000006810F4007F02D00120009001E0002040
:1001500000900098012847D16E48006820F0010007
:100160006C4908600846006820F0020008600846F4
:10017000006820F00400086065482430006840F002
:10018000805063492431086088146349086000BFC7
:100190006148406810F0100FFAD15D4808300068DF
:1001A0005B49083108600846006808600846006836
:1001B0000860081F006820F46040091F08600846B6
:1001C000006840F400400860081D006820F003004B
:1001D000091D086008460068086000BF4C480830E8
:1001E000006810F00C0FF9D108BD10B54848006840
:1001F00040F4807046490860454808300068474927
:1002000008404349083108604148006844490840B3
:100210003F4908600846006820F4802008603C4898
:100220000830006820F47D0039490831086000205A
:10023000091D0860FFF780FF4FF000603949086032
:1002400010BD70B500220020002100240023304D95
:1002500008352D6805F00C0232B1042A10D0082AA6
:1002600012D00C2A39D113E0294D2D1D2D68C5F36C
:1002700042335D1C0126AE40F5032B4E356038E05D
:100280002A4D294E356034E0294D274E356030E047
:100290001F4D08352D6805F470101D4D08352D686B
:1002A00005F44001234D05EB90452878012505EB29
:1002B0009151174D08352D6805F4803434B91B4D24
:1002C0004543B5FBF1F5184E356005E0184D454343
:1002D000B5FBF1F5144E35600BE00D4D2D1D2D686D
:1002E000C5F342335D1C0126AE40F5030E4E35606A
:1002F00000BF00BF064D08352D68C5F303150E4E2F
:10030000725D094D2D68D540074E356070BD000007
:1003100000380240003C0240007000400CC0FF88E2
:10032000FEFFFEEE08ED00E0000000200024F400D7
:1003300000127A00040000200D00002006488047CB
:1003400006480047FEE7FEE7FEE7FEE7FEE7FEE7BA
:10035000FEE7FEE7FEE7FEE7EB01000825010008E7
:100360000A21B0FBF1F1904A116000BF8E49096883
:100370000029FBD1704710B5012001F089F8142045
:10038000FFF7EEFF012001F07BF810BD10B508204B
:1003900001F076F80A20FFF7E3FF8449844801F072
:1003A00057FE20B1002082490880804908608149B9
:1003B000814801F0CAFB082001F06AF80C2001F026
:1003C00067F80D2001F064F810BD10B5FFF7D3FFFA
:1003D00004F075F810BD5D2002F040FB28B17748AD
:1003E000006840F010007549086002F039FD45F2E0
:1003F000555004F05BF8062004F05BF84FF6FF70F0
:1004000004F05AF804F05BF804F05EF8002000F005
:1004100011FA0C2000F0AEFF0D2000F0C9FF0E20F5
:1004200000F0E4FF002000F0E1FF082000F0C0FF32
:10043000042000F09FFF062000F0BAFF052000F026
:1004400099FF012000F0B4FFFFF795FF012001F0B4
:1004500017F8052001F014F8062001F011F8042027
:1004600001F00EF8082001F00BF84FF40070544929
:1004700008600DE000205349096808605148006891
:10048000001D504908604E480068001D4C49086036
:100490004B48006846F2F4718842EBD300F02DFE21
:1004A00000F034FA01F023F947A14B4805F098FA1F
:1004B0004AA1494805F094FA4FF4FA60FFF750FF5B
:1004C00001F0F0F800F05EFA5AE00121480402F071
:1004D0002FFC03F0F4FFFFF759FF0021084601F05D
:1004E000D2F83548006805F0E2F8044622460B468B
:1004F0003DA1394805F074FA2E48006805F0D7F898
:10050000044622460B463DA1334805F069FA4FF4F4
:100510007A70FFF725FF0021084601F0B4F824485F
:10052000B0F900000A2190FBF1F201FB120420480F
:10053000B0F9000090FBF1F523462A4633A1264886
:1005400005F04EFA194800680A2190FBF1F201FB10
:1005500012041648006890FBF1F523462A4630A1A4
:100560001D4805F03DFA4FF47A70FFF7F9FE01F0EF
:1005700099F800214FF4003002F0DAFB00F0F9F9AD
:10058000A3E700B503464FF47A7103FB01F0FFF7D0
:10059000E7FE00BD0448006820B103480068401E23
:1005A00001490860704700005C0000202C0000201A
:1005B000280000202400002020000020F8670020F0
:1005C000FC670020500000204D6561737572654224
:1005D0006F78205352530A00300000205665727322
:1005E000696F6E3A312E30005348542D54454D50AA
:1005F0003A2025332E3266200A00000048554D4926
:100600003A2025332E3266200A000000424D502D3C
:1006100054454D503A2025642E2564200A000000E0
:1006200050524553533A25642C2564685061200A82
:100630000000000010B5012000F0EEF84FF48040FB
:1006400004F0DFFD4FF4801002F0B8F8002000F055
:10065000E3F810BD10B5012000F0DEF8012002F033
:10066000ADF8002000F0D8F810BD10B5012000F062
:10067000D3F84FF4005002F0A1F8002000F0CCF8BD
:1006800010BD10B54FF4805004F099FD38B14FF40F
:10069000805004F0B6FD4FF4003002F08FF810BD2A
:1006A00010B5FFF777FF10BD704700BFFEE700BF32
:1006B000FEE700BFFEE700BFFEE7704770477047E8
:1006C0002DE9F04140F22551554802F048FE00283E
:1006D00079D00021534803F08BFA514802F07DFD98
:1006E000C1B2514802780078401C4F4B18704F48F7
:1006F000815418460078092865DB0127002405E0AD
:100700004A48005D3844C7B2601CC4B2082CF7DB0D
:100710004648007AB84253D14448007822284FD145
:100720004248407822284BD140488078222847D13F
:100730003E48C078222843D105073C4880790543CC
:100740003A48407945EA00253848007957281AD1B7
:100750002E463648C0793070012034490872002492
:1007600008E03248007A3149095D08442F4908728F
:10077000601CC4B2082CF4DB012240F22771284827
:1007800002F0B2FD1CE029480079522818D12E460B
:1007900030782649C87101200872002408E02348F7
:1007A000007A2249095D084420490872601CC4B2DD
:1007B000082CF4DB012240F22771194802F094FD65
:1007C00000201949087040F22771154802F0C7FD52
:1007D000B8B1174802780078401C154B18701348C0
:1007E000815C0F4802F0F5FC11480078092808DB0D
:1007F00000200F490870002240F22771084802F0DB
:1008000073FDBDE8F08110B50121064803F06BFDD2
:1008100000200549087010BD80F310887047000063
:1008200000440040000C0040EF220020F92200208C
:10083000F022002070B586B0044602A802F0B2F99A
:1008400064220398B0FBF2F1481EB0F1807F01D31F
:1008500001201BE0481E4FF0E022506150170F228C
:10086000002807DA13071E0E924B00F00F052D1F0C
:100870005E5503E013071D0E8F4B1D5400BF002073
:100880004FF0E022906107201061002008B100BF06
:10089000FEE70121FF2002F029FA03208DF8040071
:1008A00000208DF805008DF807004FF6FF700090CE
:1008B0006946824801F0EAFF6946814801F0E6FF97
:1008C0006946804801F0E2FF69467F4801F0DEFF9B
:1008D00069467E4801F0DAFF69467D4801F0D6FF9F
:1008E0001CB969467B4801F0D1FF69467A4801F09E
:1008F000CDFF0021F82002F0F9F90121084602F0AD
:1009000006FA012002F0EDFA06B070BD0EB501F056
:10091000CFFE4FF4801001F051FF4FF48010009093
:1009200000208DF8040008208DF8050001208DF8C6
:100930000600684601F0CBFE03208DF80800002079
:100940008DF809008DF80A0001208DF80B0002A82F
:1009500001F0A7FB002004F069F942F6FF7004F0F3
:100960007AF90121880304F0D5FB012004F083F912
:100970000EBD10B5012002F02BFB0121084602F04C
:10098000EDFA10BD2DE9F04F89B0012080F31088F9
:1009900000BF02F0B3F800BF212002F05FF800288A
:1009A000FAD00121480202F0B2F94C4801F0E6FB0E
:1009B00002A801F016FC0020029001208DF80C0026
:1009C00000208DF80D000490069001208DF81C0089
:1009D00002A9424801F0E0FB0623012204213F481E
:1009E00001F063FC10213D4801F035FC01224FF479
:1009F00040313A4801F026FC0121384801F00CFC56
:100A000000BF4021354801F02FFE0028F9D0012019
:100A100001F03CFC062301221121304801F045FC85
:100A20004FF0000A4FF0040B13E02C4801F0E9FCF2
:100A300000BF0221294801F017FE0028F9D02748FD
:100A400001F01BFD50441FFA80FAABF1010000F0E9
:100A5000FF0BBBF1000FE8DC002001F017FC0021C8
:100A60004FF4007002F053F9002002F047F84FEA0B
:100A7000AA0A504604F0F5FD064632460B461848D1
:100A8000184904F07AFD04460022174B04F003FDD8
:100A900080460022154B04F0FEFCCDE9000104F075
:100AA000EDFD13490880002080F3108800BF09B0D5
:100AB000BDE8F08F18ED00E000E400E0000802401F
:100AC000000C0240001002400014024000180240D6
:100AD000001C0240000002400004024000240140CB
:100AE0002FDD24068195F33F0000B04000005940FF
:100AF0000811002070B502460C4600210025002395
:100B00001078302843D15078782802D0507858286F
:100B10003DD1907808B9002070BD022130E0505CD2
:100B200010B9236001252DE0505C412802DB505CA8
:100B300046280BDD505C612802DB505C662805DD31
:100B4000505C302819DB505C392816DC505C3028AA
:100B500005DB505C392802DC505C30380AE0505C20
:100B6000412805DB505C462802DC505C373801E048
:100B7000505C573800EB031301E0002502E0491CEC
:100B80000B29CCD300BF0B2934D3002532E0002140
:100B90002AE0505C10B92360012527E0505C6B28E7
:100BA00002D0505C4B2804D119B19B02236001256F
:100BB0001CE0505C6D2802D0505C4D2804D119B166
:100BC0001B052360012511E0505C302809DB505CD7
:100BD000392806DC505C303803EB830600EB460313
:100BE00001E0002502E0491C0B29D2D300BF0B29EC
:100BF00000D3002528468FE7F0B502466E4B00254E
:100C00000024002020E0B1FBF3F6303606F0FF0CA4
:100C10002E466D1C02F806C0B1FBF3F603FB16115D
:100C20000A26B3FBF6F36E1E965D302E01D1012627
:100C300000E000260CB9012700E000273E4201D069
:100C4000002500E0641C401C0A28DCD3002005E0DD
:100C5000165C3A2E01DD00261654401C0A28F7D3F4
:100C6000F0BD2DE9F04104460E464FF0FF374FF43A
:100C7000FA65306820B1012815D0022838D125E066
:100C800001214E4801F070FE08B100F098FD0A2CD9
:100C900004D10021012000F0F6FC02E0E0B200F0F7
:100CA000D1FC274625E0A1B2454802F092FA05E0C2
:100CB0001DB94FF0FF30BDE8F0816D1E4021404866
:100CC00002F037FB0028F3D0274612E0A1B23D48DE
:100CD00002F07FFA04E015B94FF0FF30EBE76D1E2C
:100CE0004021384802F025FB0028F4D0274600E0D8
:100CF00000BF00BF3846DEE77FB505460C460094CE
:100D00000020ADF80400ADF80600ADF80800ADF81D
:100D10000C000C20ADF80A006946284600F0CFFA16
:100D20007FBD1FB50121082002F002F8684602F0DD
:100D30004BFF0120019049F64040ADF80000002033
:100D4000ADF802006946204802F018FF00211E4855
:100D500002F04EFF01211C4802F08AFF2E208DF880
:100D60000C0000208DF80D0001208DF80E008DF88C
:100D70000F0003A801F095F901221146124803F073
:100D80008AFA26208DF80C0000208DF80D008DF8D1
:100D90000E0001208DF80F0003A801F082F94FF436
:100DA000E1310120FFF7A8FF012240F2255105485B
:100DB00002F09AFA1FBD000000CA9A3B00040240EC
:100DC0000038014000440040000C00402DE9F04193
:100DD00004460D461646A719012000F0A3F802F0BC
:100DE00037FB03E0207828706D1C641CBC42F9D3EB
:100DF00002F0C3FB002000F095F8BDE8F0812DE97A
:100E0000F04104460D461646A719012000F08AF865
:100E100002F01EFB10E02978204602F03CFC43491A
:100E2000087008460078042802D1641C6D1C03E099
:100E300040F6027002F02BFEBC42ECD302F09DFBA8
:100E4000002000F06FF8BDE8F08170B50446002581
:100E5000012000F067F802F0FBFA256802F08DFB34
:100E6000002000F05FF8284670BD70B504460D46BE
:100E7000012000F057F802F0EBFA2946204602F074
:100E80002CFC2A49087002F078FB002000F04AF898
:100E900026480078042801D1002070BD0120FCE71D
:100EA00070B50446012000F03DF802F0D1FA257833
:100EB00002F063FB002000F035F8284670BD70B5E5
:100EC00004460D46012000F02DF802F0C1FA294633
:100ED000204602F0E0FB1549087002F04EFB0020AE
:100EE00000F020F811480078042801D1002070BDDE
:100EF0000120FCE710B502220D490E48FFF766FFFE
:100F00000B4800784F2803D1094840784B2808D077
:100F10004F20074908704B20487002220548FFF710
:100F20006EFF10BD80F31088704700004000002065
:100F300049000020F400080870B503460C46032C55
:100F400001DA581EC3B2642093FBF0F01946DD1796
:100F500003EB957503EBA505281A4FF4C87593FBB1
:100F6000F5F50544601EBF4E305C2844104407254B
:100F700090FBF5F605FB1600C0B270BD70B50446D7
:100F800003F0B4FAA41C25786E2D0AD1641E2578CE
:100F9000612D01D1012502E0752D00D10625641CCB
:100FA0002BE0622D01D1022527E0722D0AD1641EAB
:100FB0002578612D01D1032502E0702D00D1042593
:100FC000641C1AE0792D01D1052516E06C2D01D1A4
:100FD000072512E0672D01D108250EE0702D01D103
:100FE00009250AE0742D01D10A2506E0762D01D1EC
:100FF0000B2502E0632D00D10C259B484570A41CF5
:101000002078303800EB80004500641C20783038B0
:101010002844C5B294488570241D2078303800EBF0
:1010200080004500641C207830382844C5B28E48C2
:10103000C57003469A785978D878FFF77DFF8A49BA
:101040000870002003F052FC641C2078303800EB5C
:1010500080004500641C207830382844C5B283489D
:101060000570A41C2078303800EB80004500641C1B
:10107000207830382844C5B27C484570A41C2078BC
:10108000303800EB80004500641C2078303828445C
:10109000C5B2764885700146002003F089FB70BD1B
:1010A0001CB5044601A9002003F0ECFB69460020B2
:1010B00003F082FC9DF8050020609DF80410206874
:1010C00040EA012020609DF802009DF8031001F025
:1010D000070100EB4110216841EA004020609DF8C3
:1010E00001009DF8031001F0F80100EB41002168B8
:1010F00041EA006020601CBD704710B5012108075F
:1011000001F016FE012001F0D0FE012001F0EAFD01
:10111000002001F0E7FD012001F0F3FC00BF4920B1
:1011200001F09CFC0028FAD04FF4803001F0B6FDAD
:101130007F204F494860FF208860002008600846F3
:1011400003F09BFA012001F0C9FD03F0CFF910BDB7
:101150001FB500214FF4807003F008FD454800687A
:101160004549002003F08EFB43480478601CC4B25C
:10117000182C00D100248DF8004000208DF80100CB
:1011800031208DF80C00002002904FF000400190BB
:101190006A46C10D002003F032FC0121080203F071
:1011A000E5FC4FF4807003F0FBFF1FBD70B588B005
:1011B00000214FF4007003F0D9FC042201A92F484C
:1011C000FFF704FE9DF80400303800EB8000450076
:1011D0009DF8050030382844C5B29DF80600303827
:1011E00000EB800046009DF8070030383044C6B25E
:1011F0002048006803A9002003F0DEFB1E49002000
:1012000003F040FB9DF80C401B480078A8420ADC24
:1012100019484078B04206DA04E0062C00DD0024CC
:10122000601CC4B2F9E7601CC4B28DF810508DF890
:10123000116000208DF812008DF81C404FF08040A6
:1012400006900020059004AA4FF4007103F0D7FB2C
:101250000121480203F08AFC4FF4007003F0A0FF64
:1012600008B070BDBE620008580000205400002085
:10127000F0000020042800404B000020F600080881
:101280001CB50446924830F81400009003208DF8F5
:101290000400904951F82400694601F0F7FA8E489D
:1012A00030F8140000908D4951F82400694601F08F
:1012B000EDFA8B4951F8240001F098FE1CBD7CB575
:1012C00004460D46874951F82410874A52F82420D5
:1012D00041EA0200012101F009FD34B9834951F8C6
:1012E0002400012101F013FD05E0804951F824009C
:1012F000012101F01DFD7E4B1A5D7E4B195D754B82
:1013000053F8240001F04BFB7B4B1A5D7B4B195DBE
:10131000724B53F8240001F042FB6D4830F8140082
:10132000009002208DF8040003208DF805000020B5
:101330008DF8060001208DF80700664951F8240059
:10134000694601F0A3FA644830F81400009063493C
:1013500051F82400694601F099FA614951F82400D6
:10136000294601F086FE5E4951F82400012101F072
:1013700005FF7CBD1CB50446614951F824000121DC
:1013800001F0B4FC5F4830F81400009001208DF8A3
:1013900004008DF8060000208DF8070003208DF86A
:1013A0000500594951F82400694601F06FFA1CBD47
:1013B0001CB50446524951F82400012101F096FC65
:1013C000504830F81400009001208DF804000020EF
:1013D0008DF806008DF8070003208DF805004A49B6
:1013E00051F82400694601F051FA1CBD1CB50446B1
:1013F000434951F82400012101F078FC414830F8BC
:101400001400009000208DF804008DF807003E497C
:1014100051F82400694601F039FA1CBD1CB5044698
:10142000374951F82400012101F060FC354830F8BB
:101430001400009000208DF8040001208DF80700B2
:10144000314951F82400694601F020FA1CBD1CB551
:1014500004462B4951F82400012101F047FC29489A
:1014600030F81400009000208DF8040002208DF860
:101470000700254951F82400694601F007FA1CBD10
:10148000204931F81010204A52F82020118370476B
:101490001C4931F810101C4A52F820205183704723
:1014A000194951F82010898A164A32F81020514003
:1014B000154A52F820209182704710B50446114A0F
:1014C00032F81410104A52F8240001F041FA10BD0D
:1014D0004C630008A800002052630008B4000020FC
:1014E0009C00002034630008406300082863000863
:1014F0005E63000858630008616300085B630008CE
:10150000EC620008CC6200086000002000EBC00222
:10151000002100E0491C9142FCDB704770B5044695
:1015200000250421E24801F02BFA251115F0010FE6
:1015300004D00221DE4801F023FA03E00221DC4856
:1015400001F020FA15F0020F04D02021D94801F053
:1015500017FA03E02021D74801F014FA15F0040F20
:1015600005D04FF40051D34801F00AFA04E04FF4DB
:101570000051D04801F006FA15F0080F04D00121FF
:10158000CD4801F0FDF903E00121CB4801F0FAF963
:101590000421C74801F0F6F93220FFF7B7FF042114
:1015A000C34801F0EDF904F00F0414F0010F04D06A
:1015B0000221BF4801F0E4F903E00221BC4801F038
:1015C000E1F914F0020F04D02021BA4801F0D8F953
:1015D00003E02021B74801F0D5F914F0040F05D03D
:1015E0004FF40051B34801F0CBF904E04FF400513F
:1015F000B04801F0C7F914F0080F04D00121AE483B
:1016000001F0BEF903E00121AB4801F0BBF9042170
:10161000A74801F0B7F94FF48041A54801F0B2F9AD
:101620003220FFF773FF70BD10B504464FF48041C0
:101630009F4801F0A7F93220FFF768FF2046FFF727
:101640006DFF10BD10B504464FF48041984801F07D
:1016500097F93220FFF75AFF2046FFF75FFF10BDD2
:1016600010B5044603E02078FFF7ECFF641C2078F7
:101670000028F8D110BD10B50120FFF7D5FF962046
:10168000FFF744FF10BD70B504460D46002605EB7C
:101690008410C6B206F07F008030C6B23046FFF735
:1016A000C3FF70BD10B54FF40051814801F068F9D7
:1016B00001217F4801F064F902217D4801F062F9BF
:1016C00020217C4801F05EF94FF40051794801F087
:1016D00059F90121784801F055F90421744801F0C5
:1016E00051F94FF48041724801F04CF910BD1CB51E
:1016F0000121084601F0FAFA0121042001F0F6FA6E
:101700000121042001F0F2FA0121022001F0EEFA99
:101710000121022001F0EAFA0121022001F0E6FA9B
:101720000121022001F0E2FA0121022001F0DEFA9B
:10173000012000908DF8040000208DF806008DF83F
:10174000070003208DF8050069465B4801F09EF80C
:101750004FF4005000906946564801F097F8202059
:1017600000906946534801F091F8022000906946C4
:101770004F4801F08BF84FF48040009069464C4888
:1017800001F084F8042000906946494801F07EF891
:101790004FF4005000906946454801F077F8012069
:1017A00000906946424801F071F84FF400514048FA
:1017B00001F0E6F801213E4801F0E2F81CBD70B5E9
:1017C0004FF400513A4801F0DDF80121384801F0AA
:1017D000D9F81E20FEF7C4FD4FF48041344801F0D3
:1017E000D1F80421324801F0CDF800241AE0042198
:1017F0002F4801F0C5F802212D4801F0C1F8202141
:101800002C4801F0BDF84FF400512A4801F0BAF815
:101810000121294801F0B6F80421254801F0B2F869
:10182000601CC4B2032CE2DB0421214801F0A8F8BB
:101830001420FEF795FD02211D4801F0A3F8202198
:101840001C4801F09DF84FF400511A4801F09AF835
:101850000121194801F096F81420FEF781FD0421BA
:10186000134801F08FF82820FFF7DEFE0820FFF76D
:10187000DBFE0120FFF7D8FE0620FFF7D5FE0C2087
:10188000FFF7D2FE0A20FEF76BFD4020FFF7CCFEEB
:101890000A4D002405E02878FFF7D4FE601CC4B28E
:1018A0006D1C402CF7D38020FFF7BEFE70BD0000FA
:1018B0000004024000080240000002406463000887
:1018C0004FF40070B349088000BF00BF4FF4807030
:1018D000B049891E088000BF00BF4FF48070AD4939
:1018E000088000BF00BF70474FF40070A949891EEF
:1018F00008804010891C088000BF00BF4FF4807032
:10190000A449891E088000BF00BFA2480A38008889
:10191000C0F3402070470146802000BF4FF4807222
:101920009C4B1A80014203D052009B1E1A8003E098
:101930004FF40072974B1A8000BF4FF48072954BA2
:101940009B1E1A80401000BF0028E7D1704700B5E9
:101950004FF480708F49891E088040000880FF2066
:10196000FFF7D9FF4FF480708A49088000BF00BF9D
:101970004FF480708749891E088000BF00BD4FF476
:1019800080708449088000BF00BF4FF48070814997
:10199000891E088000BF00BF4FF400707D49088099
:1019A00000BF00BF4FF480707A49088000BF00BFBD
:1019B00000BF00BF4FF480707649891E088000BFC9
:1019C00000BF4FF400707349891E088000BF00BF3C
:1019D0004FF480706F49088000BF00BF4FF4007063
:1019E0006C49088000BF00BF70470020802100BF05
:1019F0004FF48072674B9B1E1A8000BF654A0A3AFB
:101A0000128812F4007F00D0084300BF4FF48072A8
:101A1000604B1A80491000BF0029E9D170472DE9B9
:101A2000F04107460D465C4EFFF791FFFFF7A7FF19
:101A30003846FFF770FFFFF757FF10B10120BDE8F0
:101A4000F0814FF480705349088000BF00BF00BF91
:101A500000BF00BF761E0EB90120F0E74D480A38DE
:101A6000008810F4007FF5D1FFF7BFFF0446FFF7B1
:101A700027FF4FF6FF7000EA0424FFF7B6FF044388
:101A8000FFF732FF204603F0E7FD28600020D6E78D
:101A90002DE9F04F85B004460D4628680490206873
:101AA0000390039803F003FE07463C4A3C4B03F0C7
:101AB000F2FC3C4A3C4BCDE9000103F0E6FC8246D7
:101AC00003F01CFE81463948049903F007FC824666
:101AD0003748049903F002FC8346049903F0FEFBA7
:101AE0008046514603F0A2FB0746324903F09EFBB5
:101AF00002903148049903F0F1FB83462F4903F02B
:101B000095FB80462E49484603F0E2FB824641465B
:101B100003F0E4FB0746029903F088FB06462949D7
:101B2000304603F007FE00D2264E304603F0BFFDDC
:101B300007461C4A244B03F0CDFD00D2234E2E60F5
:101B4000C4F8009005B0BDE8F08F7CB504460D46A2
:101B50000026012080F3108800BF69460320FFF7AC
:101B60005EFF064301A90520FFF759FF0643002049
:101B700080F3108800BF16B1206028607CBD01A9E9
:101B80006846FFF785FF00982060019828600120D3
:101B9000F4E700001A080240803801007B14AE47C9
:101BA000E17A843F9A99999999D94340BD52163D5B
:101BB000F624D6B5C5FE02C0ACC5A7380AD7233C6B
:101BC0000000C8410000C6429999B93FCDCCCC3D38
:101BD0004FF40070FE4908804010088000BF4FF4A9
:101BE0000070FB49891C088000BF70474FF40070EB
:101BF000F749088000BF4FF48070F549088000BFA6
:101C00004FF48070F249891C0880704700204FF41F
:101C10000071EF4A11804910118000BFEC4908396A
:101C2000098811F4007F00D001204FF48071E84A48
:101C3000921C118070474FF40070E549891C0880A0
:101C400000BF4FF48070E249088000BF4FF48070FD
:101C5000DF49891C08804000891E088070474FF4C6
:101C60000070DB49891C088000BF4FF48070D849A0
:101C7000088000BF4FF40070D549088070470020ED
:101C8000802100BF4FF48072D14B9B1C1A8000BF93
:101C9000CF4A083A128812F4007F00D0084300BFF0
:101CA0004FF48072CA4B1A80491000BF0029E9D155
:101CB0004FF48072C64B9B1C1A80704701468020EF
:101CC00000BF4FF48072C24B9B1C1A80014203D0AC
:101CD00052009B1E1A8004E04FF40072BC4B9B1C08
:101CE0001A8000BF4FF48072B94B1A80401000BFB9
:101CF0000028E6D14FF48072B54B9B1C1A807047C8
:101D000030B505460C46FFF763FFEE20FFF7D6FF20
:101D1000FFF77CFF10B10120AE4908702846FFF79D
:101D2000CDFFFFF773FF10B10120AA4908702046CC
:101D3000FFF7C4FFFFF75AFFFFF791FF30BD30B543
:101D40000446EE20FFF7BAFFFFF760FF10B1012055
:101D5000A04908702046FFF7B1FFFFF757FF10B109
:101D600001209C490870FFF733FFEF20FFF7A6FF23
:101D7000FFF74CFF10B1012096490870FFF77FFF75
:101D80000546FFF733FFFFF76AFF284630BD70B501
:101D90000646FFF71DFFEE20FFF790FFFFF736FF27
:101DA00010B101208B4908703046FFF787FFFFF71D
:101DB0002DFF10B1012087490870FFF709FFEF20C0
:101DC000FFF77CFFFFF722FF10B101208149087067
:101DD000FFF755FF0446FFF72EFFFFF750FF0546BC
:101DE000FFF704FFFFF73BFF45EA042070BD10B585
:101DF0004FF461742E21F420FFF782FF00E000BF52
:101E00002000A4F101018CB2F9D100BFF620FFF748
:101E1000BEFF80B210BDF0B56F48C078AF2100FBA7
:101E200001F7F4210846FFF76BFF00E000BF380020
:101E3000A7F101018FB2F9D100BFFFF7C9FEEE2073
:101E4000FFF73CFFF620FFF739FFFFF7DFFEFFF754
:101E5000BFFEEF20FFF732FFFFF7D8FE10B10120E1
:101E60005C490870FFF70BFF0446FFF7E4FEFFF73D
:101E700006FF0543FFF7DFFEFFF701FF0643FFF70D
:101E8000B5FEFFF7ECFE200440EA05203043401188
:101E9000F0BD00B5AA20FFF77AFF00B24F490880D5
:101EA000AC20FFF774FF00B24D490880AE20FFF769
:101EB0006EFF00B24B490880B020FFF768FF4A4927
:101EC0000880B220FFF763FF48490880B420FFF77D
:101ED0005EFF47490880B620FFF759FF00B2454929
:101EE0000880B820FFF753FF00B243490880BA20AA
:101EF000FFF74DFF00B241490880BC20FFF747FFC4
:101F000000B23F490880BE20FFF741FF00B23D49C3
:101F1000088000BD2DE9F34F84B08146FFF767FFCD
:101F200000B20390FFF777FF0290314909880398C8
:101F3000401A2E4909884843C4133148B0F90000BB
:101F4000C0023049B1F90010214490FBF1F560194D
:101F5000009000980830001100B2A9F80000009825
:101F6000A0F57A6606FB06F000132349B1F90010CC
:101F70004843C4121A48B0F900007043C51204EB7C
:101F8000050A1648B0F900000AEB8000022101EBB7
:101F9000C000801001901348B0F900007043441352
:101FA00006FB06F000131349B1F90010484305146D
:101FB0006019801C4FEAA00A0B4800880AF500410E
:101FC00048434FEAD03BDDE90110401A1CE0000015
:101FD00018080240D6000020A5630008C0000020B9
:101FE000C2000020C4000020C6000020C80000205D
:101FF000CA000020CC000020CE000020D00000202D
:10200000D2000020D400002041F66A0100FB01F854
:10201000B8F1004F04D24FEA4800B0FBFBF002E0F9
:10202000B8FBFBF040000746381200FB00F440F616
:10203000DE3060430414164878430514601900F636
:10204000CF6007EB20110598016006B0BDE8F08F66
:102050003CB504460D46002001900090012080F31D
:10206000108800BF00200B490870FFF712FF694677
:1020700001A8FFF74FFFBDF90400208000982860F9
:10208000002080F3108800BF024800783CBD0000AB
:1020900043E3FFFFD600002033490143334A116078
:1020A000704770B5002100230F22C47824B32F4C51
:1020B000246804F4E064C4F5E064C4F30721C1F1CA
:1020C0000404E3B20A4144789C40E1B284781440AD
:1020D00021430C07210E264C05786155047804F045
:1020E0001F050124AC4005786D114FF0E02606EB8A
:1020F0008505C5F8004109E0047804F01F040125B6
:10210000A5401C4C0678761144F8265070BD1A4A3A
:102110000A400243154B1B1F1A60704739B1134A1E
:10212000121D12680243114B1B1D1A6006E00F4A74
:10213000121D126882430D4B1B1D1A607047042844
:1021400008D14FF0E021096941F004014FF0E0228D
:10215000116107E04FF0E021096921F004014FF01F
:10216000E0221161704700000000FA050CED00E06C
:1021700000E400E080E100E080FFFF1F10B50446AE
:10218000FE48844207D10121401500F0F3FD0021F3
:10219000601500F0EFFD10BD30B5024600200023B1
:1021A0005068F74C20400D790C6844EA0524204320
:1021B00050609068F34C2040D1E903542C438D6863
:1021C0002C434D7944EA450420439060106B20F085
:1021D000F8700C7D641EE4B2234340EA03501063A0
:1021E00030BD002101600171417181604FF040718B
:1021F000C160002101610121017570470146002085
:10220000E14A106820F440300A681043DE4A10604A
:10221000704700210160704721B1826842F00102DD
:10222000826003E0826822F001028260704721B17F
:10223000826842F00402826003E0826822F00402B5
:10224000826070471AB143680B43436002E0436801
:102250008B43436070470A460021816821F0F001FA
:102260001143816070470A4600214168C74B1940FD
:102270001143416070478162C26270470A46002183
:10228000416821F01F0111434160704730B1BE49E0
:10229000096841F40001BC4A116005E0BA490968C7
:1022A00021F40001B84A11607047F0B504460D46AC
:1022B000002000211D2D11DDE06DA5F11E0606EBAD
:1022C0004607072606FA07F18843A5F11E0606EB26
:1022D000460603FA06F10843E06534E0132D11DDEC
:1022E000E068A5F1140606EB4607072606FA07F193
:1022F0008843A5F1140606EB460603FA06F10843E7
:10230000E06020E0092D11DD2069A5F10A0606EB49
:102310004607072606FA07F18843A5F10A0606EBE9
:10232000460603FA06F1084320610CE0606905EBFC
:102330004507072606FA07F1884305EB450603FA29
:1023400006F108436061072A0FDA206C561E06EB7F
:1023500086071F2606FA07F18843561E06EB8606F7
:1023600005FA06F1084320644AE00D2A0FDAE06B13
:10237000D61F06EB86071F2606FA07F18843D61FED
:1023800006EB860605FA06F10843E06338E0132AF7
:1023900011DAA06BA2F10D0606EB86071F2606FADE
:1023A00007F18843A2F10D0606EB860605FA06F151
:1023B0000843A06324E0192A11DA606BA2F1130626
:1023C00006EB86071F2606FA07F18843A2F11306DB
:1023D00006EB860605FA06F10843606310E0206B01
:1023E000A2F1190606EB86071F2606FA07F18843B5
:1023F000A2F1190606EB860605FA06F108432063EA
:10240000F0BD816841F08041816070470146002045
:102410008A6812F0804F01D0012000E00020704750
:1024200021B1826842F48062826003E0826822F413
:1024300080628260704721B1826842F0020282604D
:1024400003E0826822F002028260704710B50A46FB
:1024500000210023416821F46041531E41EA4331C9
:10246000416010BD21B1426842F40062426003E065
:10247000426822F40062426070470146886D80B273
:10248000704721B1826842F48072826003E0826802
:1024900022F480728260704721B1826842F4007237
:1024A000826003E0826822F4007282607047F0B5B7
:1024B000044615460020002200261D2911DDE06D8E
:1024C000A1F11E0707EB470C072707FA0CF2904310
:1024D000A1F11E0707EB470703FA07F21043E06577
:1024E00034E0132911DDE068A1F1140707EB470C74
:1024F000072707FA0CF29043A1F1140707EB4707EF
:1025000003FA07F21043E06020E0092911DD206999
:10251000A1F10A0707EB470C072707FA0CF29043D3
:10252000A1F10A0707EB470703FA07F210432061FE
:102530000CE0606901EB410C072707FA0CF29043AD
:1025400001EB410703FA07F210436061606CC0F3CE
:102550000156EF1C06F1010CA7EB0C0707EB870CEB
:102560001F2707FA0CF29043EF1C06F1010CA7EBB2
:102570000C0707EB870701FA07F209E00024014086
:10258000FFFEFFFCFDF7FFC004270140FFFD3FFFFA
:1025900010436064F0BD10B50A4600210023416C71
:1025A00021F44011531E41EA0351416410BD08B5A6
:1025B000002300930090009B0B440093009B1A6043
:1025C00008BD0A460021816821F470211143816011
:1025D00070470A460021816821F44011114381604F
:1025E0007047816841F48001816070470146002096
:1025F0008A6812F4800F01D0012000E000207047AB
:1026000021B1426842F48062426003E0426822F4F1
:1026100080624260704721B1426842F48052426059
:1026200003E0426822F480524260704708B50246D7
:1026300000200090009201F13000009B18440090AF
:102640000098006880B208BD10B50B460021D9B2D1
:10265000012404FA01F11AB144680C43446002E019
:1026600044688C43446010BD0246002013680B424E
:1026700001D0012000E000207047CA43026070478B
:1026800070B502460020002300240B0A556801267D
:102690008E4005EA060415681D4202D00CB10120E7
:1026A00000E0002070BD00220A12D343036070478F
:1026B000002044490860091D0860091D0860091DC3
:1026C00008606FF07F403F49143108607047002177
:1026D0003C498279002A3AD00A46126803689A4334
:1026E0000B461A600A1D126803689A430B1D1A6094
:1026F000027911440A6803681A430A60314A0832B1
:10270000126803689A432F4B08331A601A1D126827
:1027100003689A432B4B0C331A604279102A0ED16E
:102720001A1F126803681A43264B08331A601A1DD1
:10273000126803681A43234B0C331A600DE02149D9
:10274000427911440A6803681A430A6005E0027975
:1027500011440A6803689A430A60704700210160C7
:1027600001710C21417100218171704715491031AF
:1027700009680143134A1032116070470146002076
:10278000104A143212680A4201D0012000E00020F1
:1027900070470C4914310860704701460020002240
:1027A000084B1B6803EA0102064B14331B680B42FB
:1027B00002D00AB1012000E0002070470149143125
:1027C000086070470004014010B504468548844203
:1027D00008D10121084600F0BCFA0021012000F0D8
:1027E000B8FA52E08048844208D10121022000F06A
:1027F000B0FA0021022000F0ACFA46E07B488442A7
:1028000008D10121042000F0A4FA0021042000F0E6
:10281000A0FA3AE07648844208D10121082000F06D
:1028200098FA0021082000F094FA2EE071488442C2
:1028300008D10121102000F08CFA0021102000F0B6
:1028400088FA22E06C48844208D10121402000F03F
:1028500080FA0021402000F07CFA16E067488442AC
:1028600008D10121802000F074FA0021802000F0BE
:1028700070FA0AE06248844207D10121202000F06A
:1028800068FA0021202000F064FA10BDF0B50A4675
:1028900000210023002400BF3DE0012505FA01F3DB
:1028A000156805EA03049C4234D105684F000326ED
:1028B000BE40B543056015794E00B5400668354306
:1028C00005601579012D02D01579022D16D1856884
:1028D0004F000326BE40B543856055794E00B54094
:1028E000866835438560858801268E40B54385809E
:1028F000858896798E40B6B235438580C5684F008D
:102900000326BE40B543C560D5794E00B540C668C4
:102910003543C560491C1029BFD3F0BD4FF6FF7188
:1029200001600021017141718171C171704708B569
:102930004FF480320092009A0A430092009AC261DA
:10294000C161009AC261C2690092C269009208BD69
:1029500002460020138A0B4201D0012000E0002033
:1029600070470146088A704702460020938A0B424E
:1029700001D0012000E0002070470146888A70479E
:1029800001837047418370470AB1018300E04183AE
:10299000704781827047828A4A4082827047F0B5D0
:1029A000002300244D07ED0E02FA05F3CE1000F1CE
:1029B000200555F826504E07F70E0F26BE40B543AA
:1029C000CF1000F1200646F82750CE1000F1200568
:1029D00055F8265045EA0304CE1000F1200545F8CD
:1029E0002640F0BD00000240000402400008024002
:1029F000000C02400010024000180240001C02407F
:102A000000140240F948006840F48070F7490860FB
:102A1000F64808300068F6490840F4490831086073
:102A2000F2480068F3490840F04908600846006829
:102A300020F480200860ED480830006820F47D0014
:102A4000EA49083108600020091D0860704700212C
:102A5000E64A921C117011460870704710B5014685
:102A60000022002300204A11012A02D1DF4C2368F2
:102A700002E0DE4C3434236801F01F02012494404C
:102A80001C4201D0012000E0002010BD38B500201C
:102A900000900024002500BF3120FFF7DFFF05462E
:102AA0000098401C00900098B0F5A06F01D0002D58
:102AB000F2D03120FFF7D2FF08B1012400E000245A
:102AC000204638BDC949C91D08707047014600201D
:102AD000C64A121D106820F4604008431060704719
:102AE000C5490862704701460020C04A121D10689F
:102AF00020F4F85040EA012010607047BE49086099
:102B000070470021B94A353211701146087070477C
:102B1000BA490860704710B541EA02030343B34C59
:102B20000A34237010BDB44908667047B24908677B
:102B30007047B2492C310860704740EA0102AB4B44
:102B40000B331A70704701460020A84A08321068FB
:102B500020F00300084310607047A4480830006864
:102B600000F00C00704701460020A04A08321068AF
:102B700020F0F000084310607047014600209B4A97
:102B80000832106820F4E060084310607047014686
:102B90000020964A0832106820F4605040EAC100D4
:102BA00010607047F0B500210022002300260024A9
:102BB00000258E4F08373F6807F00C0131B104291A
:102BC00012D0082913D00C2937D113E0874F3F1DAD
:102BD0003F68C7F342356F1C4FF0010C0CFA07FC3D
:102BE0004FEACC37076036E0854F076033E0854F0A
:102BF000076030E07D4F08373F6807F470127B4F65
:102C000008373F6807F440037F4F07EB92473A7855
:102C1000012707EB9353754F08373F6807F4803659
:102C20002EB9774F5743B7FBF3F7076004E0754FB2
:102C30005743B7FBF3F707600DE06C4F3F1D3F684C
:102C4000C7F342356F1C4FF0010C0CFA07FC4FEA3A
:102C5000CC37076000BF00BF644F08373F6807F0FC
:102C6000F0010909694F7C5C0768E74047605F4FE6
:102C700008373F6807F4E061090A644F7C5C4768E5
:102C8000E7408760594F08373F6807F46051C90A29
:102C90005E4F7C5C4768E740C760F0BD002100F4F0
:102CA0004032B2F5403F08D1504A116821F0C0418E
:102CB00000F0C04211434D4A11604C4A3432126850
:102CC00022F44032494B34331A601A46126800F439
:102CD00040331A43454B34331A60704747495831E3
:102CE0000860704745495C310860704739B13F4A18
:102CF0001C32126802433D4B1C331A6006E03B4A0B
:102D00001C3212688243394B1C331A60704739B148
:102D1000364A203212680243344B20331A6006E0F0
:102D2000324A203212688243304B20331A60704797
:102D300039B12E4A2432126802432C4B24331A60D4
:102D400006E02A4A243212688243284B24331A6050
:102D5000704739B1254A103212680243234B1033B1
:102D60001A6006E0214A1032126882431F4B10336A
:102D70001A60704739B11D4A1432126802431B4B66
:102D800014331A6006E0194A143212688243174B52
:102D900014331A60704739B1144A1832126802436A
:102DA000124B18331A6006E0104A18321268824338
:102DB0000E4B18331A60704739B10C4A283212682A
:102DC00002430A4B28331A6006E0084A2832126888
:102DD0008243064B28331A607047C9B1034A2C322C
:102DE00012680243014B2C331A6016E0003802408F
:102DF0000CC0FF88FEFFFEEE0000474280064742FF
:102E00000024F40000127A00D7000020E000002027
:102E10001F4A126882431E4B1A60704739B11C4A20
:102E2000121D126802431A4B1B1D1A6006E0184A55
:102E3000121D12688243164B1B1D1A60704739B170
:102E4000134A1F3A12780243114B1F3B1A7006E0D7
:102E50000F4A1F3A127882430D4B1F3B1A7070477E
:102E60000B480830006840F080700949083108605C
:102E7000704701460020064A203A12680A4201D0F3
:102E8000012000E00020704701491E39087070479A
:102E90002C38024010B501210807FFF77CFF002104
:102EA0004FF08050FFF777FF10BD4D490862704723
:102EB000014600204B4A106820F0E00008431060F3
:102EC000704747490861704708B500220092444A9C
:102ED000A03202440092009A116008BD4049886205
:102EE00070473F4948627047014600203D4A1068DC
:102EF00020F4C050084320F00C023A4B1A6070478F
:102F000058B13849096841F00101364A116011464B
:102F1000096841F4804111600AE03249096821F4EE
:102F20008041304A11601146096821F001011160A9
:102F3000704710B5024600202A4B186820F00300A5
:102F400010431860284B1B6823F00403264C2360B1
:102F5000012901D130BF00E020BF10BD10B50246ED
:102F60000020204B186820F00300104318601E4B0F
:102F70001B6843F004031C4C2360012901D130BFBE
:102F800000E020BF184B1B6823F00403164C23609D
:102F900010BD1448006840F004001249086008465B
:102FA000006840F0020008600F48006840F004002C
:102FB0000D49086000BF00BF30BF704701460020C8
:102FC000084A52680A4201D0012000E00020704700
:102FD0000449096841EA8001024A11607047000013
:102FE00000000E420070004010ED00E010B50446F5
:102FF000F748844209D101218803FFF7BBFE002175
:103000004FF48040FFF7B6FE32E0F248844209D127
:1030100001214804FFF7BFFE00214FF40030FFF705
:10302000BAFE25E0EC48844209D101218804FFF76B
:10303000B2FE00214FF48020FFF7ADFE18E0E74814
:10304000844209D10121C804FFF7A5FE00214FF4F5
:103050000020FFF7A0FE0BE0E148844208D10121E7
:103060000805FFF798FE00214FF48010FFF793FE4C
:1030700010BD2DE9FF4705460E460024A14600BFBE
:10308000A046B08900B100BF2C8A24F44054F088D7
:1030900004432C82AC8941F20C608443B0883189AE
:1030A0000843718908430443AC81AC8A24F440741A
:1030B000B0890443AC826846FFF774FDC44885427A
:1030C00002D1DDF80C9001E0DDF80890A88910F439
:1030D000004F08D009EBC90000EB09103168490026
:1030E000B0FBF1F707E009EBC90000EB091031680C
:1030F0008900B0FBF1F76420B7FBF0F00401200970
:10310000642101FB1078A88910F4004F08D0322008
:1031100000EBC800B0FBF1F000F00700044308E04A
:10312000322000EB08106421B0FBF1F000F00F003A
:1031300004432C81BDE8FF874FF416510160002144
:103140008180C18001810C214181002181817047F2
:1031500010B502460020108A20F470600B884C885D
:1031600023438C882343CC8823431843108210BD0B
:103170000021018041808180C180704721B1828916
:1031800042F40052828104E082894DF6FF731A40B6
:1031900082817047028B02F47F420283028B0A43D2
:1031A0000283704721B1828942F40042828103E0A8
:1031B0008289C2F30E028281704721B1828A42F471
:1031C0000062828204E0828A4FF2FF731A40828298
:1031D0007047C1F308028280704701468888C0F3B7
:1031E00008007047028A4FF6F0731A400282028A82
:1031F0000A430282704721B1828942F00202828131
:1032000004E082894FF6FD731A40828170478289FB
:103210004FF2FF731A40828182890A43828170478C
:10322000028A4FF6DF731A400282028A0A43028240
:10323000704721B1028A42F48042028204E0028A8D
:103240004BF6FF731A4002827047818941F00101F9
:103250008181704721B1828A42F00802828204E0B3
:10326000828A4FF6F7731A4082827047028BD2B27D
:103270000283028B42EA01220283704721B1828AD3
:1032800042F02002828204E0828A4FF6DF731A4005
:103290008282704721B1828A42F01002828204E069
:1032A000828A4FF6EF731A4082827047828A4FF605
:1032B000FB731A408282828A0A438282704721B15C
:1032C000828A42F00202828204E0828A4FF6FD7313
:1032D0001A40828270471AB1838A0B43838202E0CC
:1032E000838A8B4383827047F0B50346002400260F
:1032F00000250020A1F510676A3F00D100BF1846E5
:10330000C1F3421401F01F06012707FA06F5012C4C
:1033100001D10C3004E0022C01D1103000E0143057
:103320001AB107682F43076002E00768AF430760E0
:10333000F0BD02460020B1F5007F00D100BF138828
:103340000B4201D0012000E00020704701F4007220
:10335000B2F5007F00D100BFCA430280704770B54C
:1033600002460024002300250020A1F510666A3ED5
:1033700000D100BFC1F3421501F01F03012606FA78
:1033800003F3012D02D19689334006E0022D02D1CC
:10339000168A334001E0968A33400C12012606FA61
:1033A00004F41688344013B10CB1012000E0002071
:1033B00070BD10B500220023A1F510646A3C00D155
:1033C00000BF0A1201249440A3B2DC43048010BD64
:1033D000003801400044004000480040004C0040DC
:1033E0000050004001460020F94A106820F001001A
:1033F00008431060704730B1F549096841F0020197
:10340000F34A116005E0F249096821F00201F04A2F
:103410001160704730B1EE49096841F00401EC4A8F
:10342000116005E0EA49096821F00401E84A1160E9
:10343000704730B1E649096841F00801E44A11607B
:1034400005E0E349096821F00801E14A116070478D
:10345000DF48001D006810F0010F05D0DD48DC4991
:103460000C310860DC480860704700B5D848001D82
:10347000006810F0020F07D0FFF7EAFFD748D449E1
:1034800010310860D648086000BDD148001D0068B2
:1034900040F00200CE49091D086070470420CC4965
:1034A0001831096811F0010F01D0012010E0C8495E
:1034B0001831096811F4807F01D0022008E0C44966
:1034C0001831096811F4F05F01D0032000E00420F6
:1034D000704708B5024604200090FFF7DFFF009018
:1034E00003E0FFF7DBFF0090521E9DF8000001286B
:1034F00001D1002AF5D10AB9052000909DF80000FD
:1035000008BD30B5044604256803FFF7E2FF054611
:10351000042D1FD1AE48001D006840F40070AC4976
:10352000091D08600846006840F008000860002097
:1035300020606803FFF7CDFF0546A548001D006821
:1035400020F00800A249091D08600846006820F420
:1035500000700860284630BD70B504460D4604264C
:103560007003FFF7B6FF0646042E04D12560400322
:10357000FFF7AFFF0646304670BD9548001D006856
:1035800040F001009249091D0860704740B1904920
:10359000091D096841F480718D4A121D116007E010
:1035A0008B49091D096821F48071894A121D116037
:1035B000704730B5044604256803FFF78AFF0546C7
:1035C000042D01D100202070284630BD30B50446BE
:1035D00004256803FFF77DFF0546042D01D1002077
:1035E0002080284630BD30B5044604256803FFF727
:1035F00070FF0546042D01D100202060284630BD13
:1036000070B504460D4604267003FFF762FF0646B8
:10361000042E0CD16E48001D006820F480706C49A7
:10362000091D086025707003FFF753FF06463046FA
:1036300070BD70B504460D4604267003FFF749FFC0
:103640000646042E0CD16248001D006820F48070EC
:103650005F49091D086025807003FFF73AFF0646A1
:10366000304670BD70B504460D4604267003FFF762
:1036700030FF0646042E0CD15548001D006820F48A
:1036800080705349091D086025607003FFF721FF12
:103690000646304670BD70B504460D4604267003DC
:1036A000FFF717FF0646042E04D125704003FFF7ED
:1036B00010FF0646304670BD70B504460D46042620
:1036C0007003FFF706FF0646042E04D12580400351
:1036D000FFF7FFFE0646304670BD70B504460D4646
:1036E00004267003FFF7F5FE0646042E04D125607C
:1036F0004003FFF7EEFE0646304670BD00B5344885
:10370000001D006810F0040F07D0FFF7A1FE354838
:103710002F49143108603448086000BD2C48001D52
:10372000006840F004002A49091D086070472848D5
:10373000001D006840F480202549091D086070477D
:103740002DE9F04704460F46002500264FF00408F7
:10375000A946AA464FF40040FFF7BBFE8046B8F1E9
:10376000040F31D1AFB121488068204385B21F4892
:10377000C06840EA144086B2E84345EA00491B4865
:10378000C0F80890F04346EA004A1848C0F80CA078
:1037900015E01648806880B220EA04051348C06826
:1037A000E14300EA1146E84345EA00490F48C0F802
:1037B0000890F04346EA004A0C48C0F80CA04FF4C9
:1037C0000040FFF786FE80464046BDE8F0870000D7
:1037D000003C0240EFCDAB8905040302BFAE9D8CD7
:1037E00016151413C8D9EAFB272625240000F81F54
:1037F0002DE9F04704460F46002500264FF0040847
:10380000A946AA464FF40040FFF763FE8046B8F190
:10381000040F31D1AFB1A0480069204385B29E4862
:10382000406940EA144086B2E84345EA00499A48B4
:10383000C0F81090F04346EA004A9748C0F814A038
:1038400015E09548006980B220EA04059248406975
:10385000E14300EA1146E84345EA00498E48C0F8D2
:103860001090F04346EA004A8B48C0F814A04FF489
:103870000040FFF72EFE80464046BDE8F0872DE968
:10388000F04704460F46002500264FF00408A946DD
:10389000AA464FF40040FFF71CFE8046B8F1040F23
:1038A00031D1AFB17C488069204385B27A48C06984
:1038B00040EA144086B2E84345EA00497648C0F839
:1038C0001890F04346EA004A7348C0F81CA015E07F
:1038D0007148806980B220EA04056F48C069E143FD
:1038E00000EA1146E84345EA00496B48C0F81890E1
:1038F000F04346EA004A6848C0F81CA04FF4004074
:10390000FFF7E7FD80464046BDE8F087F0B5044686
:103910000425002600276803FFF7DBFD0546E0438A
:10392000C6B244EA0647042D01D15B4807604FF454
:103930000040FFF7CEFD05462846F0BD2DE9F043D7
:1039400004460D46164604274FF000084FF00009C4
:1039500052480068C0F3034944EA0500304340EA96
:103960000900C0434FEA004844EA0500304340EAFA
:10397000090040EA08087803FFF7ABFD0746042F6B
:1039800002D14548C0F804804FF40040FFF7A1FD84
:1039900007463846BDE8F083F0B504460425002606
:1039A00000273E48006800F47000070C44EA070056
:1039B000C043060444EA070006436803FFF789FD95
:1039C0000546042D01D1344846604FF40040FFF70E
:1039D00080FD05462846F0BDF0B5044604250026C6
:1039E00000272E480068C0F3064744EA0700C0439A
:1039F000060444EA070006436803FFF76AFD05462C
:103A0000042D01D1244846604FF40040FFF761FDCA
:103A100005462846F0BD21480068C0F307507047AE
:103A20001E48001D006870471C48643000687047DD
:103A30001A48683000687047002018490968C9B200
:103A4000AA2901D0012000E0002070471348006837
:103A5000C0F30340704739B1104A183A1268024364
:103A60000E4B183B1A6006E00C4A183A1268824363
:103A70000A4B183B1A60704701460020074A121F84
:103A800012680A4201D0012000E00020704703497B
:103A9000091F0860704700000000F81F1C3C02402E
:103AA00010B50446B4F1804F08D101210846FFF754
:103AB00072F900210120FFF76EF95EE0FB488442B5
:103AC00008D101210220FFF766F900210220FFF74B
:103AD00062F952E0F648844208D101210420FFF740
:103AE0005AF900210420FFF756F946E0F1488442D4
:103AF00008D101210820FFF74EF900210820FFF727
:103B00004AF93AE0EC48844208D101211020FFF73D
:103B100042F900211020FFF73EF92EE0E7488442E9
:103B200008D101212020FFF736F900212020FFF7DE
:103B300032F922E0E248844208D101210420FFF753
:103B400019F900210420FFF715F916E0DD48844239
:103B500008D101210820FFF70DF900210820FFF707
:103B600009F90AE0D848844207D101211020FFF763
:103B700001F900211020FFF7FDF810BD0022028896
:103B8000B0F1804F08D0C94B984205D0C84B98423D
:103B900002D0C84B984204D14FF68F731A404B881D
:103BA0001A43C54B984207D0C44B984204D04FF6F5
:103BB000FF431A400B891A4302804B68C3620B888B
:103BC00003850123838270474FF0FF31416000215C
:103BD00001800181418070470185828270470A46D9
:103BE000002101884FF68F731940114301807047FF
:103BF00041627047C16270470146486A704701469A
:103C0000088D704721B1028842F00202028004E070
:103C100002884FF6FD731A400280704721B1028876
:103C200042F00402028004E002884FF6FB731A405F
:103C30000280704721B1028842F08002028004E0D5
:103C400002884FF67F731A400280704702884FF651
:103C5000F7731A40028002880A4302807047028884
:103C60004FF6FF431A40028002880A4302807047E1
:103C700021B1028842F00102028004E002884FF67E
:103C8000FE731A400280704730B500230022048C76
:103C90004FF6FE752C400484028C038B4FF68F7414
:103CA0002340AC1E23400C8823436C1E22400C8909
:103CB00022434C8822434C6844630383028430BD12
:103CC00030B500230022048C4FF6EF752C4004849D
:103CD000028C038B48F6FF7423400C884FF6FF7567
:103CE00005EA042423434FF6DF7422400C8905EAD9
:103CF000041422434C8805EA041422434C6884636C
:103D00000383028430BD30B500230022048C4FF6BB
:103D1000FF652C400484028C838B4FF68F74234004
:103D20000C8823434FF6FF5422400C894FF6FF7551
:103D300005EA042422434C8805EA042422434C6803
:103D4000C4638383028430BD30B500230022048C19
:103D50004EF6FF752C400484028C838B48F6FF746A
:103D600023400C884FF6FF7505EA042423434DF6E3
:103D7000FF7422400C8905EA043422434C8805EA8A
:103D8000043422434C6804648383028430BD0021E0
:103D90000180418041600181704770B50346002079
:103DA00000241846183001258D40ACB21D8CA54367
:103DB0001D8409B1082909D100EB6100056825F0CF
:103DC000700505600568154305600EE00D1FC5F31D
:103DD0004E052844056825F4E045056005684FF662
:103DE000FF7606EA02263543056070BD41637047E1
:103DF00081637047C1637047016470470A460021C0
:103E0000018B4FF68F7319401143018370470A46A7
:103E10000021018B48F6FF7319404FF6FF7303EA48
:103E200002231943018370470A460021818B4FF614
:103E30008F7319401143818370470A460021818B9B
:103E400048F6FF7319404FF6FF7303EA0223194344
:103E5000818370470A460021018B4FF6F7731940A2
:103E60001143018370470A460021018B4FF2FF7313
:103E700019404FF6FF7303EA022319430183704789
:103E80000A460021818B4FF6F77319401143818355
:103E900070470A460021818B4FF2FF7319404FF69D
:103EA000FF7303EA02231943818370470004004033
:103EB00000080040000C00400010004000140040CA
:103EC00000080140000C0140001001400A4600219A
:103ED000018B4FF6FB7319401143018370470A466B
:103EE0000021018B4FF6FF3319404FF6FF7303EAB1
:103EF00002231943018370470A460021818B4FF644
:103F0000FB7319401143818370470A460021818B5E
:103F10004FF6FF3319404FF6FF7303EA02231943AC
:103F2000818370470A460021018B4FF67F73194049
:103F30001143018370470A460021018BC1F30E0132
:103F40004FF6FF7303EA02231943018370470A46C1
:103F50000021818B4FF67F73194011438183704795
:103F60000A460021818BC1F30E014FF6FF7303EA6D
:103F700002231943818370470A460021018C4FF6C2
:103F8000FD7319401143018470470A460021018CDA
:103F90004FF6DF7319404FF6FF7303EA021319431C
:103FA000018470470A460021018C4FF6FF531940E7
:103FB0004FF6FF7303EA02231943018470470A4650
:103FC0000021018C4DF6FF7319404FF6FF7303EA91
:103FD000023319430184704702894FF6F7731A4080
:103FE000028102890A430281704730B5002301240F
:103FF0008C40A3B2048C9C430484048C02FA01F527
:10400000ADB22C43048430BD828B4FF2FF331A4093
:104010008283828B4FF6FF7303EA01231A43828364
:104020007047F0B50C461546002100220026078C8B
:104030004EF6FF7C07EA0C070784818B028C4FF653
:10404000FF7707EA043640F6FF4739404FF6FF771F
:1040500007EA052739434FF6FF7707EA0337394365
:1040600045F6FF773A4046F480573A43818302840D
:10407000F0BD828B4FF6F3731A408283828B0A4322
:1040800082837047F0B50C461546002100220026B9
:10409000078C4FF6FF6C07EA0C070784818B028CB4
:1040A0004FF6FF7707EA04264FF60C7739404FF6B4
:1040B000FF7707EA03172F4339434FF2FF573A4080
:1040C00046F480773A4381830284F0BD028B4FF23D
:1040D000FF331A400283028B4FF6FF7303EA01237A
:1040E0001A4302837047F0B50C46154600210022A2
:1040F0000026078C4FF6EF7C07EA0C070784018B3C
:10410000028C4FF6FF7707EA041640F6FF47394066
:104110004FF6FF7707EA033739434FF6FF7707EA91
:10412000052739434FF65F773A4046F010073A4388
:1041300001830284F0BD028B4FF6F3731A400283B1
:10414000028B0A4302837047F0B50C4615460021E6
:104150000022068C4FF6FE773E400684018B028CCF
:104160004FF60C7631407E1C06EA03162E4331438F
:104170004FF6F576324044F0010632430183028463
:10418000F0BD70B505460C46208850B92389A28839
:1041900061882846FFF7D8FFE1882846FFF7CBFF64
:1041A00025E0208804280AD12389A288618828462E
:1041B000FFF799FFE1882846FFF788FF17E020887E
:1041C00008280AD12389A28861882846FFF75AFF68
:1041D000E1882846FFF74DFF09E02389A28861881E
:1041E0002846FFF71EFFE1882846FFF70DFF70BD48
:1041F000002101804180012181800021C180018155
:1042000070472DE9F04105460C46002601276088DD
:1042100008B9022600E00026A088012801D1022763
:1042200000E001272088A0B92389A2886188284658
:10423000FFF78AFFE1882846FFF77DFF23893A468A
:1042400031462846FFF74FFFE1882846FFF73EFF3B
:1042500013E02389A28861882846FFF744FFE1889C
:104260002846FFF733FF23893A4631462846FFF7B1
:104270006BFFE1882846FFF75EFFBDE8F08101464D
:10428000486B70470146886B70470146C86B7047A2
:104290000146086C70471AB183890B43838102E0A1
:1042A00083898B4383817047818270470246002057
:1042B000138A0B4201D0012000E000207047CA435E
:1042C0000282704730B50246002000230024158A80
:1042D00005EA0103958905EA010413B10CB1012037
:1042E00000E0002030BDCA430282704741EA020369
:1042F000A0F8483070471AB183890B43838102E0EC
:1043000083898B438381704721B1828842F0080200
:10431000828004E082884FF6F7731A4082807047EB
:1043200001894FF6F8721140018170470A46002159
:1043300001894FF68F73194011430181704730B5E1
:1043400004460D4629462046FFF7F0FF208940F03D
:104350000700208130BD2DE9F04104460D46164688
:104360001F46602D06D13B46012231462046FFF70D
:10437000BAFE05E03B46012231462046FFF7E4FE47
:1043800029462046FFF7D2FF208940F00700208110
:10439000BDE8F08130B50C4600210189C9B24FF665
:1043A000FF7505EA0325154325432943018130BDE7
:1043B0002DE9F04105460E4617469846002443462F
:1043C0003A4631462846FFF7E5FF2C894FF6F8704C
:1043D000044044F007044FF68F70044044F070042A
:1043E0002C81BDE8F081F0B504460D4616461F4607
:1043F0003B46324629462046FFF7CCFF208940F451
:1044000080402081F0BD82884FF68F731A408280F1
:1044100082880A438280704702894FF6F8731A40F7
:10442000028102890A430281704702894FF67F7335
:104430001A40028102890A4302817047F0B50C4696
:1044400015461E460021002200230189028B038CA1
:104450004FF6F877394021434FF6FC473A4040F297
:1044600001173A434FF6DD773B404FF6FF7707EAF7
:1044700006172F433B43018102830384F0BD21B122
:10448000828842F08002828004E082884FF67F7347
:104490001A408280704730F8502F02EA11420280A1
:1044A00002888BB21A4320F8502970470E490860E1
:1044B00070470D49486070470B49886070474AF65D
:1044C000AA200949086070474CF6CC4006490860AC
:1044D000704701460020044AD2680A4201D00120F8
:1044E00000E00020704700000030004008B50022C6
:1044F000009200200021CA22F94B1A6053221A6050
:10450000F74A183A126822F0A002F54B183B1A60DD
:1045100000BFF34A183A126802F02001009A521CB8
:104520000092009AB2F5004F01D00029F1D0EC4A78
:10453000183A126812F0200F01D0012000E000208C
:10454000FF22E74B1A6008BD08B500220092002048
:104550000021E34A183A126812F0400F1CD1421EA3
:10456000DF4B183B1A6000BFDD4A183A126802F0B0
:104570004001009A521C0092009AB2F5005F01D0EF
:104580000029F1D0D64A183A126812F0400F01D033
:10459000012002E0002000E0012008BD38B5002025
:1045A000009000240025CA20CD49086053200860EF
:1045B000FFF7CAFF00B952E00020C949243908605A
:1045C00042F20110091D0860081D006800F0070094
:1045D000091D086000BFC2481838006800F00404D4
:1045E0000098401C00900098B0F5005F01D0002CAE
:1045F000F1D0BB481838006810F0040F01D1002535
:104600002DE0B7481C3800680020B5491C39086007
:104610004FF6FF70B24910390860B248091F0860B0
:104620000020AF490C390860091D0860091D0860A9
:10463000AB4908310860AA4918310860A8492031FF
:104640000860091D0860A64918390860A4491C3192
:104650000860FFF74BFF08B9002500E00125FF20A7
:104660009F490860284638BD9D481838006820F0EA
:1046700080009B4918390860704730B50446002512
:10468000CA209749086053200860FFF75DFF00B912
:104690001DE093481C38006820F0400090491C3908
:1046A000086008460068216808438D491C39086085
:1046B0008B491439A068086008460068A18840EA60
:1046C0000140874914390860FFF7CEFF0125FF201C
:1046D00083490860284630BD002101607F21416088
:1046E000FF218160704718B1FF217D4A116004E00D
:1046F000CA217B4A116053211160704730B50446CE
:104700000025CA207649086053200860FFF71CFF87
:1047100000B914E044B172481C38006840F0100041
:104720006F491C39086007E06D481C38006820F0AC
:1047300010006B491C390860FFF796FF0125FF2028
:1047400067490860284630BDCA21654A1160532177
:10475000116040B162491C39096841F02001604A8A
:104760001C3A116007E05E491C39096801F0DF015D
:104770005B4A1C3A1160FF21594A1160704701469B
:10478000002204E0501CC2B2A1F10A00C1B20A2901
:10479000F8DA100741EA10607047014600BF0809C7
:1047A00000EB8000420001F00F001044C0B27047DF
:1047B0002DE9F04105460C460026002755B948482A
:1047C0001C38006810F0400F00D002E00020E070BC
:1047D00000BF0EE042481C38006810F0400F04D0C3
:1047E0002078FFF7DAFF064602E00020E07000BF05
:1047F00000BF55B120780004617840EA0120A1781B
:104800000843E17840EA014611E02078FFF7B7FF5E
:104810004FEA00486078FFF7B2FF48EA0028A07826
:10482000FFF7ADFF48EA0008E07848EA0046CA20F2
:104830002B49086053200860FFF786FE08B900275F
:1048400014E029483040264924390860FFF70CFF5E
:1048500023481C38006810F0200F06D1FFF746FEF1
:1048600008B9002702E0012700E00127FF201C49CA
:1048700008603846BDE8F0810021C17001704170C8
:104880008170704770B506460C46002514482438E0
:104890000068154900EA0105C5F305402070C5F31D
:1048A0000620607005F07F00A07005F48000000C09
:1048B000E0705EB92078FFF770FF20706078FFF736
:1048C0006CFF6070A078FFF768FFA07070BD0020DB
:1048D0000349091D0868024920390968704700002A
:1048E00024280040FF007F007F7F7F002DE9F041FA
:1048F00005460C46002600274DB9607800F01000F0
:10490000102804D1607820F010000A30607005B9DA
:1049100008E06078FFF741FF0646A078FFF73DFF0B
:10492000064600BF55B1E0780004617840EA0120F6
:10493000A1780843217840EA413611E0E078FFF79A
:104940001EFF4FEA00486078FFF719FF48EA002889
:10495000A078FFF714FF48EA0008207848EA4036BC
:10496000CA20FE49086053200860FFF7EDFD08B932
:10497000002714E0FA483040F84920390860FFF772
:1049800073FEF6481C38006810F0200F06D1FFF7C0
:10499000ADFD08B9002702E0012700E00127FF2054
:1049A000EE4908603846BDE8F08101210170817050
:1049B00041700021C170704770B506460C46002555
:1049C000E64820380068E64900EA0105280CE07056
:1049D000C5F30420607005F03F00A070C5F34230BD
:1049E00020705EB9E078FFF7D8FEE0706078FFF7DE
:1049F000D4FE6070A078FFF7D0FEA07070BD2DE9E6
:104A0000F04105460E46144600276DB9D3481C38C0
:104A1000006810F0400F00D002E00020E07000BFFE
:104A2000A06800B91AE019E0CC481C38006810F002
:104A3000400F04D02078FFF7B0FE074602E00020C8
:104A4000E07000BFA06820B9207BFFF7A6FE0746F4
:104A500004E0207BFFF7A1FE074600BF95B1207858
:104A60000004617840EA0120A1780843E17840EA37
:104A70000140217B40EA0160A1680843616840EA87
:104A800001071BE02078FFF77AFE4FEA00486078C4
:104A9000FFF775FE48EA0028A078FFF770FE48EAA5
:104AA0000008E07848EA0048207BFFF768FE48EA03
:104AB0000060A1680843616840EA0107CA20A7496D
:104AC000086053200860B6F5807F03D1A3480838FA
:104AD000076002E0A148001F0760FF209F490860AF
:104AE000BDE8F0810021C17001704170817081606A
:104AF000012101730021416070472DE9F041064614
:104B00000F4614460025B7F5807F03D19348083837
:104B1000056802E09148001F0568C5F30540207054
:104B2000C5F30620607005F07F00A07005F48000DA
:104B3000000CE070C5F30560207305F08040A060B4
:104B400005F0803060607EB92078FFF726FE207087
:104B50006078FFF722FE6070A078FFF71EFEA0705D
:104B6000207BFFF71AFE2073BDE8F08138B50246BE
:104B70000024009400230020CA24784D2C60532484
:104B80002C6041B1754C1C3C24681443734D1C3D92
:104B90002C6001201EE0714C1C3C246894436F4D36
:104BA0001C3D2C6000BF6D4C183C246804EA1223A5
:104BB000009C641C0094009CB4F5005F01D0002BA5
:104BC000F1D0664C183C246814EA122F01D1002061
:104BD00000E00120FF24614D2C6038BD30B500237A
:104BE000CA245E4D2C6053242C6041EA0203B0F5C8
:104BF000807F03D1594C2034236002E0574C243489
:104C00002360FF24554D2C6030BD01460020B1F5D6
:104C1000807F05D1514A20321268C2F30E0004E0B1
:104C20004E4A24321268C2F30E007047CA214B4A22
:104C300011605321116049491C39096821F00701AD
:104C4000464A1C3A11601146096801431160FF2170
:104C5000424A11607047CA21404A116053211160D5
:104C60003E4910390860FF21116070473B481038F9
:104C7000006880B2704718B50146002300930022F7
:104C80000020CA23354C23605323236049B1334BA2
:104C90001C3B1B6843F48063304C1C3C23600120A8
:104CA0001FE02E4B1C3B1B6823F480632B4C1C3CE9
:104CB000236000BF294B183B1B6803F00402009BD4
:104CC0005B1C0093009BB3F5005F01D0002AF1D07C
:104CD000224B183B1B6813F0040F01D1002000E0A9
:104CE0000120FF231D4C236018BDCA221B4B1A60F4
:104CF00053221A60194A1C3A126822F48022174B78
:104D00001C3B1A601A46126840EA01031A43134B0F
:104D10001C3B1A60FF22114B1A6070470F481C3869
:104D2000006800F480207047CA220C4B1A6053229E
:104D30001A600A4A1C3A126822F4E002074B1C3B34
:104D40001A601A46126840EA01031A43034B1C3BDF
:104D50001A60FF22014B1A607047000024280040AF
:104D60003FFFFF0070B504460D460026CA20FE49ED
:104D7000086053200860FFF7E7FB00B907E044EA4A
:104D80000500F9490C390860FFF76EFC0126FF2089
:104D9000F5490860304670BD30B504460025CA208C
:104DA000F149086053200860FFF7CEFB00B914E01A
:104DB00044B1ED481C38006840F08000EA491C39D5
:104DC000086007E0E8481C38006820F08000E649E9
:104DD0001C390860FFF748FC0125FF20E249086004
:104DE000284630BDCA21E04A11605321116040B10C
:104DF000DD491C39096841F40001DB4A1C3A1160A5
:104E000007E0D9491C39096821F40001D64A1C3A47
:104E10001160FF21D44A11607047CA21D24A116043
:104E200053211160D0491C39096821F40021CE4A70
:104E30001C3A11601146096801431160FF21CA4AFA
:104E40001160704770B5034600200024CA25C64E85
:104E5000356053253560C44D183D2D6815F4803FED
:104E60000AD000E0641CC04D183D2D6815F4803F49
:104E700002D0B4F5805FF5D1BB4D183D2D6815F417
:104E8000803F07D143EA01051543B74E1836356018
:104E9000012000E00020FF25B34E356070BD10B545
:104EA0000A460021B04B1C3B1B6840F6080423EA6D
:104EB00004011AB140F40063194300E00143CA231E
:104EC000A94C236053232360A74B1C3B1960FF238D
:104ED000236010BD2DE9F04180460C4615460026A2
:104EE0000027A1480C300068A04900EA01069E484E
:104EF000103000689E4900EA0107C6F305402070A3
:104F0000C6F30620607006F07F00A07006F48000F3
:104F1000000CE0700020E870C7F30420687007F010
:104F20003F00A870C7F342302870B8F1000F17D1C6
:104F30002078FFF732FC20706078FFF72EFC60705D
:104F4000A078FFF72AFCA0706878FFF726FC68704D
:104F5000A878FFF722FCA8702878FFF71EFC2870BD
:104F6000BDE8F081804814300068704741B97E4A3E
:104F70001C32126822EA40027B4B1C331A6007E0A5
:104F8000794A1C32126842EA4002774B1C331A609D
:104F9000704739B1744A1C3212680243724B1C3399
:104FA0001A6006E0704A1C32126882436E4B1C3352
:104FB0001A6070476C491C31096821F4C0516A4A73
:104FC0001C3211601146096801431160704766493F
:104FD0001C31096821F4E061634A1C3211601146FA
:104FE00009680143116070475F491C31096821F469
:104FF000C0415D4A1C3211601146096801431160CD
:10500000704740B158491C31096841F08001564A47
:105010001C32116007E054491C31096821F08001FD
:10502000514A1C321160704740B14F491C31096828
:1050300021F400414C4A1C32116007E04A491C31FE
:10504000096841F40041484A1C321160704708B5B4
:1050500000220092444A2C320092009A02EB800215
:105060000092009A116008BD08B50146002000902A
:105070003D482C300090009800EB81000090009893
:10508000006808BD38491C31096821F48021364A7E
:105090001C32116011460968014311607047F0B578
:1050A00004460D4600270026CA202F4908605320D9
:1050B00008602D481838006810F0080F0AD000E08A
:1050C000761C29481838006810F0080F02D0B6F591
:1050D000005FF5D124481838006810F0080F13D18C
:1050E00021481C38006810F0100F0BD145EA04006D
:1050F0001D4908310860FFF7F9F908B9002704E0F5
:10510000012702E0002700E00027FF201649086081
:105110003846F0BDCA22144B1A6053221A6091B16E
:10512000114A1C3A126820F004031A430E4B1C3B30
:105130001A600D4A1C32126800F004031A430A4B2D
:105140001C331A6018E0084A1C3A126820F0040365
:105150009A43054B1C3B1A60034A1C32126800F04C
:1051600004039A43004B05E0242800407F7F7F0022
:105170003FFFFF001C331A60FF222A4B1A60704762
:1051800010B5014600200022264B183B1B68264C18
:1051900003EA04020A4201D0012000E0002010BD11
:1051A000C0F3100141F080011E4A183A126802F063
:1051B000800262EA01011B4A183A1160704730B55B
:1051C0000146002000220023164C1C34246804F001
:1051D0000402144C1C3C24680C408D0C21FA05F58B
:1051E00002EAD53544EA05030E4C183C246804EA6B
:1051F000111223B11404240C01D0012000E000207E
:1052000030BD002101098AB242F08002054B183BF3
:105210001B6803F0800363EA0202024B183B1A602A
:1052200070470000242800407FFF0100F0B480EAAE
:105230000102D40F4200B2EB410F02D202460846EF
:1052400011464A0042D0C30DDDB2C1F3C752AD1AB8
:10525000202D35DAC1F3160141F4000204B15242A7
:10526000C5F1200602FA06F12A411044B3EBD05FE3
:1052700023D0C4B1012DA0EBC35009DCF0BC4FF02A
:10528000004202EAC35200F50000DBB200F0DDBAD2
:10529000400000F1807000EBC350A0F1807040EA44
:1052A000D170490009E0490841EAC071A0EBC35040
:1052B00000F50000400800EBC350F0BC00F0BCBAA1
:1052C0006142012202EB4101001BF6E7F0BC70478E
:1052D00081F00041AAE780F00040A7E780EA0102E0
:1052E00010B502F00043400026D04A0023D04FEA18
:1052F000106101EB1261C0F35600C2F3560240F494
:10530000000042F40002A0FB0220A1F17F014FEA5D
:105310000040140401D000F1010050EA124001D411
:105320004000491EC2B20C0604EBD010401C4008DD
:10533000802A02D003E0002010BD20F001000029E7
:1053400000DA0020184310BD2DE9FE4F804681EAA7
:105350000300C00F0C46009021F0004123F00045EF
:10536000B8EB0200A94105D24046214690461C46B2
:105370000B46024623F00040104304D1404621462C
:1053800003B0BDE8F08F270DC7F30A00C3F30A513D
:105390000290401A0190402866DAC3F3130040F4EB
:1053A000801B0098924620B10023D2EB030A63EBE6
:1053B0000B0B01985946C0F14002504600F00BFA21
:1053C00006460D4650465946019A00F023FA10EB66
:1053D00008006141002487EA115284EAE7731A4306
:1053E0003BD0009A3AB3019A012A4FEA075210DCE7
:1053F000001B61EB02014FF0004202EA0752CDE9C7
:105400000042001C41F5801132462B4600F057FA4D
:10541000B6E7001B61EB0201001C41F58013001888
:105420005B412018A2F5001747EB030140EAD57055
:10543000B6196D4111E06D084FEA360645EAC075B0
:105440004FEA0752001B61EB0201001C41F580117D
:1054500049084FEA30000019514132462B4603B04B
:10546000BDE8F04F00F01EBA009801224000002372
:10547000D0EB020263EBE073009821464FEAE07440
:10548000B8EB000061EB0401E9E783F000435BE760
:1054900081F0004158E72DE9FE4F81EA030404F052
:1054A000004421F0004100944FF0000B23F0004332
:1054B00050EA010402D052EA030404D1002001465C
:1054C00003B0BDE8F08FC3F30A54C1F30A552C446E
:1054D000A4F2F3340194A0FB0254C1F3130141F48C
:1054E0008011C3F3130343F4801301FB024400FB58
:1054F000034E840A970A44EA815447EA8357A4FB7F
:10550000076802958D0A05FB07854FEA932C04FB7B
:105510000C542705029D4FEA065847EA1637B5EBAB
:1055200008056EEB070C870E920E47EA811742EAD8
:105530008312A7FB0201B6EB0B0164EB00042B0DF9
:1055400043EA0C335E1844EB1C50DA465146E7FB45
:105550000201C5F313044FEA0B3343EA14534FEA35
:105560000432019C43EA0603A4F10C040294009C5B
:10557000CDE900B400F0A3F9A2E72DE9F04D81EAEE
:10558000030404F0004B21F0004514464FF0000ADC
:1055900023F0004150EA050220D054EA01021DD058
:1055A000C5F30A570246C5F31303C1F31300C1F351
:1055B0000A5640F4801543F48013A7EB0608101B2D
:1055C000D64608F2FD3873EB050002D308F1010856
:1055D00001E092185B41B8F1000F03DA00200146A8
:1055E000BDE8F08D00204FF48011064684460EE0A1
:1055F000171B73EB050705D3121B63EB050306436B
:105600004CEA010C49084FEA300092185B4150EA1D
:105610000107EDD152EA030012D082EA040083EAC6
:105620000501084303D100224FF0004308E0101B9E
:10563000AB4102D20122002302E06FF001025310BD
:105640001AEB06004CEB085110EB0A0041EB0B0182
:10565000BDE8F04D00F026B996230022114600F077
:10566000F4B80EB540F2334102910021CDE90011AA
:105670000A460B4600F023F903B000BDC1F30A52FD
:1056800010B5C1F3130140F2FF3341F480119A4287
:1056900001DA002010BD40F233439A42A2F23342B5
:1056A00003DC524200F0A6F810BD904010BD00F09F
:1056B000004230F000400AD0C10D01F56071C0F326
:1056C000160042EA0151C20840071143704700200A
:1056D0000146704730B5002904DB4FF000444042DA
:1056E00064EB0101002B04DB4FF00044524264EBF9
:1056F00003038B4208BF824230BD000001F000432B
:1057000030B421F0004150EA010206D00A0DA2F5A2
:105710006072C1F31301002A02DC30BC0020704724
:10572000440F44EAC104C100E01830BC00EBC25091
:1057300000F082B8002801DBC0F10040002901DB45
:10574000C1F100418842704730B50B460146002048
:105750002022012409E021FA02F59D4205D303FA33
:1057600002F5491B04FA02F52844151EA2F10102B4
:10577000F1DC30BD2DE9F05F0546002092469B46E6
:1057800088460646814640241BE028464146474657
:10579000224600F02FF853465A46C01A914110D3C2
:1057A00011461846224600F016F82D1A67EB01083C
:1057B0004F4622460120002100F00DF817EB0009AA
:1057C0004E41201EA4F10104DFDC484631462A4642
:1057D0004346BDE8F09F202A04DB203A00FA02F19C
:1057E000002070479140C2F1200320FA03F31943CF
:1057F00090407047202A04DB203A21FA02F0002171
:10580000704721FA02F3D040C2F1200291400843D0
:1058100019467047202A06DBCB17203A41FA02F0DE
:1058200043EAE07306E041FA02F3D040C2F12002FD
:1058300091400843194670470029A8BF7047401C93
:10584000490008BF20F00100704710B4B0FA80FC96
:1058500000FA0CF050EA010404BF10BC704749B1D3
:10586000CCF1200421FA04F411FA0CF118BF012143
:1058700021430843A3EB0C01CB1D0106000A002BBA
:10588000BEBF002010BC704700EBC350104400297D
:10589000A4BF10BC7047401C490008BF20F00100A5
:1058A00010BC704710B5002B08DA401C41F1000114
:1058B00092185B411A4301D120F0010010BD2DE97F
:1058C000F04D92469B4611B1B1FA81F202E0B0FA76
:1058D00080F220329046FFF77EFF04460F4640EAF2
:1058E0000A0041EA0B0153465A46084303D12046B9
:1058F0003946BDE8F08D114653EA010015D0C8F1D4
:1059000040025046FFF776FF05460E465046594680
:105910004246FFF760FF084301D0012000E000206D
:10592000054346EAE0762C4337430A984FEA44534E
:10593000A0EB08004FEAD4240A304FF0000244EAFA
:1059400047544FEAD72502D500200146D1E701058B
:1059500010196941DDE9084500196941BDE8F04DBC
:10596000A0E7C1F30A52C1F3130140F2FF3341F43F
:1059700080119A4202DA00200146704740F2334318
:105980009A42A2F2334202DC5242FFF733BFFFF7E2
:1059900022BF000030B5002904DB4FF00044404234
:1059A00064EB0101002B04DB4FF00044524264EB36
:1059B0000303994208BF904230BD0000064C074DDA
:1059C00006E0E06840F0010394E8070098471034CF
:1059D000AC42F6D3FAF7AAFBAC630008CC6300082C
:1059E0000FB4024610B504A9034B039800F0C4F8A5
:1059F00010BC5DF814FB0000630C000802E008C84E
:105A0000121F08C1002AFAD170477047002001E038
:105A100001C1121F002AFBD1704700002DE9FF5F72
:105A2000DDE90220010DDDF838B0024310D10F98F6
:105A300001244CA2012808D0002100980F9BC0E946
:105A40000021C0E90243BDE8FF9F6FEA0B01F4E7C4
:105A5000A1F2FF3144F6105041430D140F98012874
:105A60000ED0A5EB0B00401C4FF000043E4EDFF8BB
:105A7000FC90B0F1000AA04605DACAF1000717E071
:105A8000CBF10000F0E7074612E0F80707D0224606
:105A9000334640464946FFF7FEFC8046894622468B
:105AA000334610461946FFF7F6FC04460E467F10B3
:105AB000002FEAD1DDE90201BAF1000F42464B4660
:105AC00002DAFFF7E8FC01E0FFF757FD04460E4657
:105AD0000022274BFFF75EFF03D84FF0FF3001464F
